:020000040800F2
:100000000080012075310108696E00086B6E0008E0
:100010006D6E00086F6E0008716E00080000000031
:10002000000000000000000000000000736E0008E7
:10003000756E000800000000776E0008796E0008F9
:10004000C5310108C5310108C5310108C5310108B4
:10005000C5310108C5310108C5310108C5310108A4
:10006000C5310108C5310108816E0008C53101089C
:10007000C5310108C5310108C5310108C531010884
:10008000C5310108C5310108C53101080000000073
:10009000000000000000000000000000916E000859
:1000A000C5310108C5310108C5310108C531010854
:1000B000C5310108C5310108C5310108C531010844
:1000C000C5310108C5310108C5310108C531010834
:1000D000C5310108C5310108C53101080000000023
:1000E000C5310108C5310108C53101080000000013
:1000F000000000000000000000000000C531010801
:1001000000000000C5310108C5310108C5310108F2
:1001100000000000000000000000000000000000DF
:10012000C5310108C5310108C5310108C5310108D3
:10013000C5310108000000000000000000000000C0
:10014000000000000000000000000000C5310108B0
:10015000C5310108C5310108C5310108C5310108A3
:10016000C5310108C5310108000000000000000091
:10017000000000000000000000000000000000007F
:1001800000000000C5310108000000000000000070
:04019000C53101086C
:1001A00010B5054C237833B9044B13B10448AFF3B1
:1001B00000800123237010BD98060020000000007D
:1001C0004069010808B5034B1BB103490348AFF36D
:1001D000008008BD000000009C0600204069010866
:1001E00081F0004102E000BF83F0004330B54FEAE8
:1001F00041044FEA430594EA050F08BF90EA020F55
:100200001FBF54EA000C55EA020C7FEA645C7FEAE7
:10021000655C00F0E2804FEA5454D4EB5555B8BF0A
:100220006D420CDD2C4480EA020281EA030382EA7B
:10023000000083EA010180EA020281EA0303362D0D
:1002400088BF30BD11F0004F4FEA01314FF4801CE0
:100250004CEA113102D0404261EB410113F0004FF2
:100260004FEA03334CEA133302D0524263EB4303A9
:1002700094EA050F00F0A780A4F10104D5F1200E47
:100280000DDB02FA0EFC22FA05F2801841F10001A2
:1002900003FA0EF2801843FA05F359410EE0A5F176
:1002A00020050EF1200E012A03FA0EFC28BF4CF0A7
:1002B000020C43FA05F3C01851EBE37101F000455D
:1002C00007D54FF0000EDCF1000C7EEB00006EEB6A
:1002D0000101B1F5801F1BD3B1F5001F0CD34908F4
:1002E0005FEA30004FEA3C0C04F101044FEA44524B
:1002F00012F5800F80F09A80BCF1004F08BF5FEAD2
:10030000500C50F1000041EB045141EA050130BDB1
:100310005FEA4C0C404141EB010111F4801FA4F154
:100320000104E9D191F0000F04BF01460020B1FAA9
:1003300081F308BF2033A3F10B03B3F120020CDAE1
:100340000C3208DD02F1140CC2F10C0201FA0CF0BF
:1003500021FA02F10CE002F11402D8BFC2F1200C24
:1003600001FA02F120FA0CFCDCBF41EA0C019040DA
:10037000E41AA2BF01EB0451294330BD6FEA040423
:100380001F3C1CDA0C340EDC04F11404C4F120020E
:1003900020FA04F001FA02F340EA030021FA04F320
:1003A00045EA030130BDC4F10C04C4F1200220FA77
:1003B00002F001FA04F340EA0300294630BD21FAB5
:1003C00004F0294630BD94F0000F83F4801306BF7B
:1003D00081F480110134013D4EE77FEA645C18BF6F
:1003E0007FEA655C29D094EA050F08BF90EA020F06
:1003F00005D054EA000C04BF1946104630BD91EAFE
:10040000030F1EBF0021002030BD5FEA545C05D100
:100410004000494128BF41F0004130BD14F580043F
:100420003CBF01F5801130BD01F0004545F0FE41B3
:1004300041F470014FF0000030BD7FEA645C1ABFE8
:10044000194610467FEA655C1CBF0B46024650EA1F
:10045000013406BF52EA033591EA030F41F400214B
:1004600030BD00BF90F0000F04BF0021704730B5D1
:100470004FF4806404F132044FF000054FF00001A6
:1004800050E700BF90F0000F04BF0021704730B567
:100490004FF4806404F1320410F0004548BF40423C
:1004A0004FF000013EE700BF42004FEAE2014FEA91
:1004B00031014FEA02701FBF12F07F4393F07F4F6C
:1004C00081F06051704732F07F4208BF704793F06F
:1004D0007F4F04BF41F40021704730B54FF4607482
:1004E00001F0004521F000411CE700BF50EA010285
:1004F00008BF704730B54FF000050AE050EA01022E
:1005000008BF704730B511F0004502D5404261EB9D
:1005100041014FF4806404F132045FEA915C3FF4DE
:10052000D8AE4FF003025FEADC0C18BF03325FEA7B
:10053000DC0C18BF033202EBDC02C2F1200300FA2C
:1005400003FC20FA02F001FA03FE40EA0E0021FA51
:1005500002F11444BDE600BF70B54FF0FF0C4CF43F
:10056000E06C1CEA11541DBF1CEA135594EA0C0FF1
:1005700095EA0C0F00F0DEF82C4481EA030621EA2C
:100580004C5123EA4C5350EA013518BF52EA033567
:1005900041F4801143F4801338D0A0FB02CE4FF019
:1005A0000005E1FB02E506F00042E0FB03E54FF049
:1005B0000006E1FB03569CF0000F18BF4EF0010E41
:1005C000A4F1FF04B6F5007F64F5407404D25FEA3D
:1005D0004E0E6D4146EB060642EAC62141EA5551F0
:1005E0004FEAC52040EA5E504FEACE2EB4F1FD0C32
:1005F00088BFBCF5E06F1ED8BEF1004F08BF5FEAB0
:10060000500E50F1000041EB045170BD06F0004661
:1006100046EA010140EA020081EA0301B4EB5C040E
:10062000C2BFD4EB0C0541EA045170BD41F4801106
:100630004FF0000E013C00F3AB8014F1360FDEBF2B
:10064000002001F0004170BDC4F10004203C35DA07
:100650000C341BDC04F11404C4F1200500FA05F38A
:1006600020FA04F001FA05F240EA020001F000422B
:1006700021F0004110EBD37021FA04F642EB0601A1
:100680005EEA430E08BF20EAD37070BDC4F10C04CB
:10069000C4F1200500FA04F320FA05F001FA04F28F
:1006A00040EA020001F0004110EBD37041F100017B
:1006B0005EEA430E08BF20EAD37070BDC4F1200586
:1006C00000FA05F24EEA020E20FA04F301FA05F2EE
:1006D00043EA020321FA04F001F0004121FA04F296
:1006E00020EA020000EBD3705EEA430E08BF20EA66
:1006F000D37070BD94F0000F0FD101F000464000A0
:1007000041EB010111F4801F08BF013CF7D041EA21
:10071000060195F0000F18BF704703F00046520025
:1007200043EB030313F4801F08BF013DF7D043EAF6
:100730000603704794EA0C0F0CEA135518BF95EAAC
:100740000C0F0CD050EA410618BF52EA4306D1D133
:1007500081EA030101F000414FF0000070BD50EA52
:10076000410606BF1046194652EA430619D094EADC
:100770000C0F02D150EA013613D195EA0C0F05D1C6
:1007800052EA03361CBF104619460AD181EA03011A
:1007900001F0004141F0FE4141F470014FF00000D2
:1007A00070BD41F0FE4141F4780170BD70B54FF06D
:1007B000FF0C4CF4E06C1CEA11541DBF1CEA1355ED
:1007C00094EA0C0F95EA0C0F00F0A7F8A4EB0504CF
:1007D00081EA030E52EA03354FEA013100F08880C6
:1007E0004FEA03334FF0805545EA131343EA12638F
:1007F0004FEA022245EA111545EA10654FEA002644
:100800000EF000419D4208BF964244F1FD0404F5FC
:10081000407402D25B084FEA3202B61A65EB030558
:100820005B084FEA32024FF480104FF4002CB6EB15
:10083000020E75EB030E22BFB61A754640EA0C0095
:100840005B084FEA3202B6EB020E75EB030E22BFD5
:10085000B61A754640EA5C005B084FEA3202B6EB16
:10086000020E75EB030E22BFB61A754640EA9C00D5
:100870005B084FEA3202B6EB020E75EB030E22BFA5
:10088000B61A754640EADC0055EA060E18D04FEA63
:10089000051545EA16754FEA06164FEAC30343EA03
:1008A00052734FEAC2025FEA1C1CC0D111F4801FD0
:1008B0000BD141EA00014FF000004FF0004CB6E7C9
:1008C00011F4801F04BF01430020B4F1FD0C88BF68
:1008D000BCF5E06F3FF6AFAEB5EB030C04BFB6EB73
:1008E000020C5FEA500C50F1000041EB045170BD66
:1008F0000EF0004E4EEA113114EB5C04C2BFD4EB93
:100900000C0541EA045170BD41F480114FF0000E16
:10091000013C90E645EA060E8DE60CEA135594EA92
:100920000C0F08BF95EA0C0F3FF43BAF94EA0C0F95
:100930000AD150EA01347FF434AF95EA0C0F7FF40A
:1009400025AF104619462CE795EA0C0F06D152EA5E
:1009500003353FF4FDAE1046194622E750EA410642
:1009600018BF52EA43067FF4C5AE50EA41047FF453
:100970000DAF52EA43057FF4EBAE12E74FF0FF3CB8
:1009800006E000BF4FF0010C02E000BF4FF0010C89
:100990004DF804CD4FEA410C7FEA6C5C4FEA430C02
:1009A00018BF7FEA6C5C1BD001B050EA410C0CBF51
:1009B00052EA430C91EA030F02BF90EA020F0020B3
:1009C000704710F1000F91EA030F58BF994208BF1A
:1009D00090422CBFD8176FEAE37040F001007047D7
:1009E0004FEA410C7FEA6C5C02D150EA013C07D12E
:1009F0004FEA430C7FEA6C5CD6D152EA033CD3D079
:100A00005DF8040B704700BF8446104662468C4672
:100A10001946634600E000BF01B5FFF7B7FF0028A5
:100A200048BF10F1000F01BD4DF808EDFFF7F4FFCE
:100A30000CBF012000205DF808FB00BF4DF808ED59
:100A4000FFF7EAFF34BF012000205DF808FB00BF7C
:100A50004DF808EDFFF7E0FF94BF012000205DF89E
:100A600008FB00BF4DF808EDFFF7CEFF94BF012053
:100A700000205DF808FB00BF4DF808EDFFF7C4FF4C
:100A800034BF012000205DF808FB00BF4FEA410C95
:100A90007FEA6C5C02D150EA013C0AD14FEA430C78
:100AA0007FEA6C5C02D152EA033C02D14FF00000B5
:100AB00070474FF0010070474FEA410212F50012F3
:100AC00015D211D56FF47873B3EB625212D94FEA95
:100AD000C12343F0004343EA505311F0004F23FA7F
:100AE00002F018BF404270474FF00000704750EAD4
:100AF000013005D111F0004008BF6FF00040704791
:100B00004FF00000704700BF53B94AB9002908BF31
:100B100000281CBF4FF0FF314FF0FF3000F072B9DA
:100B2000ADF1080C6DE904CE00F006F8DDF804E044
:100B3000DDE9022304B070472DE9F047089E044622
:100B40008846002B4BD18A42154667D9B2FA82F209
:100B50004AB1C2F1200701FA02F320FA07F79540E3
:100B600047EA030894404FEA154E230CB8FBFEF702
:100B70001FFA85FC0EFB178843EA084307FB0CF1BC
:100B8000994209D9EB1807F1FF3080F01B81994297
:100B900040F21881023F2B445B1AA4B2B3FBFEF073
:100BA0000EFB103344EA034400FB0CFCA44509D9B6
:100BB0002C1900F1FF3380F00781A44540F2048135
:100BC00002382C4440EA0740A4EB0C0400271EB175
:100BD000D4400023C6E900433946BDE8F0878B4284
:100BE00009D9002E00F0EB800027C6E90001384645
:100BF0003946BDE8F087B3FA83F7002F47D18B421F
:100C000002D3824200F2FA80841A61EB03030120CE
:100C10009846002EE0D0C6E90048DDE702B9FFDEC5
:100C2000B2FA82F2002A40F08F80491B4FEA154E3B
:100C30001FFA85F80127B1FBFEFC230C0EFB1C11EB
:100C400043EA014308FB0CF1994207D9EB180CF178
:100C5000FF3002D2994200F2CD808446591AA3B2E5
:100C6000B1FBFEF00EFB101443EA044408FB00F84D
:100C7000A04507D92C1900F1FF3302D2A04500F29C
:100C8000B6801846A4EB080440EA0C409FE7C7F181
:100C9000200CBB4022FA0CFE4EEA030E01FA07F4C8
:100CA00020FA0CF521FA0CF34FEA1E482543B3FB5A
:100CB000F8F92C0C08FB19331FFA8EFA44EA0343A7
:100CC00009FB0AF49C4202FA07F200FA07F10BD979
:100CD0001EEB030309F1FF3080F087809C4240F255
:100CE0008480A9F1020973441B1BADB2B3FBF8F079
:100CF00008FB103345EA034400FB0AFAA24508D971
:100D00001EEB040400F1FF336BD2A24569D902380F
:100D1000744440EA0940A0FB0289A4EB0A044C4554
:100D2000C2464B4654D351D0002E69D0B1EB0A05D0
:100D300064EB030404FA0CFCFD40FC404CEA05059E
:100D4000C6E90054002747E7C2F1200320FA03F761
:100D5000954001FA02F021FA03F34FEA154E3843A9
:100D6000010CB3FBFEF71FFA85F80EFB173341EABF
:100D7000034107FB08F38B4204FA02F407D9691810
:100D800007F1FF3C2FD28B422DD9023F2944CB1AC9
:100D900081B2B3FBFEF00EFB103341EA034100FBCE
:100DA00008F38B4207D9691800F1FF3C17D28B4238
:100DB00015D902382944C91A40EA07473BE73746A4
:100DC000304609E70746E7E61846FBE64145ABD261
:100DD000B8EB020A69EB0E0201381346A4E760463D
:100DE000E9E7184695E76746D1E781467CE7023890
:100DF0002C4447E7ACF1020C2B442FE7384608E7B8
:100E00003746E9E6704700BF10F8012B11F8013BA7
:100E1000012A28BF9A42F7D0D01A7047034613F828
:100E2000012B002AFBD1181A01387047000000007E
:100E300001F0FF01102A2BDB10F0070F08D010F88B
:100E4000013B013A8B422DD010F0070F42B3F6D18F
:100E5000F0B441EA012141EA014122F007047FF0A8
:100E600000070023F0E80256083C85EA010586EAFF
:100E7000010685FA47F5A3FA87F586FA47F6A5FA3B
:100E800087F68EB9EED1F0BC01F0FF0102F0070247
:100E900032B110F8013B013A83EA010313B1F8D1F2
:100EA0000020704701387047002D06BF35460338D3
:100EB000073815F0010F07D1013015F4807F02BF0C
:100EC000013015F4C03F0130F0BC0138704700BF5D
:100ED000012800D070474FF6FF739942FAD130B520
:100EE00083B00C4D0C4C802301930C4B00930323D7
:100EF00002222946204600F010F910230193084BE6
:100F0000009305230422294604F1400000F005F96E
:100F100003B030BDB4580120B806002000000240E4
:100F20000008024010B50446054806F0FDF8102CF4
:100F300000D010BD02F032FD014806F0F5F8F8E7E8
:100F40005025050870B58CB0424806F0EDF8424DCA
:100F5000284600F067F905F1400000F063F901F060
:100F600039FF3E4801F0D6FE01F02EFF012000F0CF
:100F700019FA09A801F04FFF9DF82520110201F48C
:100F800080719DF824301943642303FB01F303F5BA
:100F9000CE2303F50073C2F3400202FB0334304852
:100FA00006F0C2F821462F4806F0BEF82E4806F09B
:100FB000BBF89DF82510C1F340112C4806F0B4F899
:100FC0009DF82510C1F30011294806F0ADF8294815
:100FD00006F0AAF807F098FF03F0ECFD05A80BF067
:100FE0002FFC254B0693254B0793254B059305A80E
:100FF0000BF02CFC02A80BF097FC01248DF80840A4
:10100000204B039302A80BF095FC069E002211468C
:1010100010460BF051FFADF8000040F2DF1340F234
:101020003F1200210846B0471749D22012F04AF873
:1010300011F004F903F0CCFBC5F8804006F014FF72
:101040000CF010FB0A2000F0ADF90A200BF0D2FCE6
:10105000F4E700BF64250508B8060020AC3713FE8E
:1010600074250508802505088C25050890250508A8
:10107000A825050820270508154E00085D4E000824
:10108000A54E0008015200088002002010B5044C53
:10109000204600F0D5F804F1400000F0D1F810BD72
:1010A000B806002000000000034648B9144A92ED3B
:1010B000000B012B07D0022B0FD0032B17D070474A
:1010C0009FED0D0BF5E70E4AD2E9020100EE100A82
:1010D00001F1004200EE902AEDE7094AD2E9100141
:1010E00000EE100A01F1004200EE902AE5E7044B01
:1010F00093ED120BE3E700BF0000000000000000CA
:10110000B806002008B54FF6FF710120FFF7E0FE9A
:1011100008BD00680B68C01A704730B4002580F81D
:101120002050052580F83050022580F83C500125DC
:1011300080F83D5041628262C36230BC704700005B
:10114000F8B504460F4600EBC10300200021C3E9B7
:101150000001002619E0234B022204F1320013F0B3
:1011600009FE94F83C30183304EB430304EBC70545
:101170005888FFF787F902460B46D5E90001FFF7CB
:1011800035F8C5E900010136F6B294F83D00B042E9
:1011900019D9002594F83010A942DCD9606A00F012
:1011A000D7F90121606A00F06FFA606A00F0C7FAAF
:1011B00005F1180304EB43035880606A00F044FA19
:1011C0000135EDB2E6E704EBC704D4E90067FFF7A9
:1011D00059F902460B4630463946FFF7E7FAC4E9AB
:1011E0000001F8BD1311000870B584B00446002555
:1011F00002950395836A0093012601966946406A29
:1012000000F0A0FA29462046FFF79AFFE36A009310
:101210006946606A00F096FA31462046FFF790FF73
:1012200004B070BD10B50446FFF7DEFFD4E900231B
:10123000C4E90423D4E90223C4E9062310BD000055
:101240002DE9F8438046FFF7CFFF00240CE008EBC0
:10125000C50527A3D3E90023D5E90001FFF7A6FAC6
:10126000C5E900010134E4B2012C3FD8254608EB62
:10127000C409A31C08EBC303D3E90023D9E9000187
:10128000FEF7B2FF00221C4BFFF790FAC9E90001FC
:1012900021F000470022194B3946FFF7CFFB18B168
:1012A00000200021C9E9000108EBC50110A3D3E922
:1012B0000023D1E90001FFF7DFFB30B108EBC503E4
:1012C0000BA1D1E90001C3E9000108EBC50100222F
:1012D0000B4BD1E90001FFF7B1FB0028B7D008EBB9
:1012E000C50300200649C3E90001B0E7BDE8F88363
:1012F0000000000000C06240000024C00000204048
:1013000000C062C010B504460E4B18784FF47A73D3
:10131000B3FBF0F30C4A1068B0FBF3F000F02CFBC9
:1013200068B90F2C01D901200AE0002221464FF0B4
:10133000FF3000F0E1FA034B5C60002000E0012088
:1013400010BD00BF00000020F801002008B50B4BC5
:101350001A6842F400721A601A6842F480621A60D5
:101360001A6842F480721A60032000F0B3FA002079
:10137000FFF7C8FF05F05CFD002008BD003C0240FF
:10138000034A1168034B1B780B441360704700BF7E
:10139000B058012000000020014B1868704700BFC2
:1013A000B058012038B50446FFF7F6FF0546B4F102
:1013B000FF3F02D0044B1B781C44FFF7EDFF401B9E
:1013C000A042FAD338BD00BF00000020494B5A6844
:1013D00022F440325A605A6841680A435A600268EF
:1013E000536823F48073536002685368016943EAC9
:1013F000012353600268536823F04073536002680E
:10140000536881680B4353600268936823F4006358
:10141000936002689368C1680B439360826A364B9D
:101420009A4249D00268936823F07063936002681F
:101430009368816A0B4393600268936823F040537A
:10144000936002689368C16A0B4393600268936873
:1014500023F00203936002689368816943EA4103C1
:101460009360036A002B32D10268536823F400634F
:1014700053600268D36A23F47003D3620168CB6AB5
:10148000C269013A43EA0253CB620268936823F4CB
:101490000073936002689368016B43EA4123936091
:1014A0000268936823F480639360026893684169DB
:1014B00043EA8123936070470268936823F0706366
:1014C00093600268936823F040539360BEE702681C
:1014D000536843F4006353600268536823F4604325
:1014E000536001684B68426A013A43EA42334B60F9
:1014F000BFE700BF002301400100000F30B310B56B
:101500000446036C43B1236C13F0100F0AD0012082
:10151000002384F83C3010BD436480F83C3005F073
:10152000DFFAF0E7236C23F4885323F0020343F03F
:10153000020323642046FFF749FF00206064236C08
:1015400023F0030343F001032364E1E70120704724
:1015500082B00023019390F83C30012B63D001232B
:1015600080F83C3003689A6812F0010F13D19A6832
:1015700042F001029A60304B1B68304AA2FB032301
:101580009B0C03EB4303019302E0019B013B01939E
:10159000019B002BF9D10268936813F0010F44D02E
:1015A000036C23F4E06323F0010343F480730364CA
:1015B000536813F4806F05D0036C23F4405343F455
:1015C00080530364036C13F4805F19D0436C23F0E1
:1015D00006034364002380F83C306FF0220313605D
:1015E000174B5B6813F01F0F0DD103689A6812F058
:1015F000405F1DD19A6842F080429A60002015E059
:1016000000234364E6E703680E4A934201D00020BA
:101610000CE09A6812F0405F0CD19A6842F0804268
:101620009A60002002E0022000E0002002B0704733
:101630000020FBE70020F9E7F801002083DE1B43D0
:10164000002301400020014090F83C30012B19D0CC
:10165000012380F83C300268936823F00103936013
:1016600003689B6813F0010F07D1036C23F48853C0
:1016700023F0010343F001030364002380F83C30AE
:10168000184670470220704703689A6812F4806F0A
:1016900003D09B6813F4807F1CD170B50D460446BF
:1016A000FFF77AFE064623681A6812F0020F1AD175
:1016B000B5F1FF3FF7D025B1FFF76EFE801BA842C2
:1016C000F1D9236C43F004032364002384F83C30F5
:1016D00003202DE0036C43F020030364002380F813
:1016E0003C30012070476FF012021A60236C43F403
:1016F0000073236423689A6812F0405F17D1A269CF
:10170000BAB9DA6A12F4700F03D09B6813F4806FD1
:1017100011D1236C23F480732364236C13F4805F52
:101720000BD1236C43F001032364002000E0002070
:1017300070BD0020FCE70020FAE70020F8E703680E
:10174000D86C704730B482B00023019390F83C30DD
:10175000012B00F0B780012380F83C300B68092B87
:101760003ED90568EA689BB203EB43031E3B07249E
:1017700004FA03F322EA0303EB600568EA688C6865
:101780000B8803EB43031E3B04FA03F31343EB60A4
:101790004B68062B3AD805686A6B03EB8303053B5D
:1017A0001F2404FA03F322EA03036B6305686A6BE0
:1017B0004B6803EB8303053B0C8804FA03F31343E4
:1017C0006B630268404B9A4250D002683E4B9A428B
:1017D00055D0002380F83C30184602B030BC70472A
:1017E00005682A699BB203EB4303072404FA03F359
:1017F00022EA03032B6105682A698C680B8803EBD6
:10180000430304FA03F313432B61C1E70C2B16D8EF
:1018100005682A6B03EB8303233B1F2404FA03F3BD
:1018200022EA03032B6305682A6B4B6803EB8303EF
:10183000233B0C8804FA03F313432B63C1E70568C9
:10184000EA6A03EB8303413B1F2404FA03F322EA11
:101850000303EB620568EA6A4B6803EB8303413BD1
:101860000C8804FA03F31343EB62AAE70B68122B0C
:10187000ABD1164A536843F480035360A5E70B6865
:10188000103B012BA5D8114A536843F40003536061
:101890000B68102B9DD10E4B1B6802F1467202F5AE
:1018A0002E3202F28332A2FB03239B0C03EB830351
:1018B0005A00019202E0019B013B0193019B002B26
:1018C000F9D186E7022088E700200140002301408B
:1018D000F8010020074AD36823F4E0631B041B0CC3
:1018E000000200F4E060184340F0BF6040F40030B4
:1018F000D060704700ED00E030B4174BDB68C3F3F5
:101900000223C3F10704042C28BF04241D1D062D47
:1019100018D9033B4FF0FF3505FA04F421EA04011E
:10192000994005FA03F322EA0303194300280BDB6D
:101930000901C9B200F1604000F5614080F8001370
:1019400030BC70470023E5E700F00F000901C9B281
:10195000024B1954F4E700BF00ED00E014ED00E085
:1019600000F01F02400901239340024A42F8203050
:10197000704700BF00E100E00138B0F1807F0AD27B
:10198000064B5860064AF02182F823100020986028
:1019900007221A6070470120704700BF10E000E086
:1019A00000ED00E000230F2B00F2C580F0B482B000
:1019B00039E0042200E00022B2403A4302345E4E95
:1019C00046F824205D4A1468EA4302EA04064F6898
:1019D00017F4803F01D045EA0406584C266064683D
:1019E00002EA04064F6817F4003F01D045EA0406F6
:1019F000524C6660A46802EA04064F6817F4801F20
:101A000001D045EA04064D4CA660E46822404E68C9
:101A100016F4001F01D045EA0402484CE26001338D
:101A20000F2B00F2858001229A400C6804EA02051F
:101A3000AA42F4D14C68022C01D0122C10D1DE083D
:101A4000083650F826C003F00704A7000F24BC4056
:101A50002CEA040C0C69BC4044EA0C0440F8264013
:101A600004685F000326BE40F64306EA040C4C6897
:101A700004F00304BC4044EA0C0404604C6804F124
:101A8000FF3CBCF1010F03D9112C01D0122C10D155
:101A9000846806EA040CCC68BC4044EA0C04846008
:101AA000446824EA02024C68C4F300149C401443C6
:101AB0004460C26816408A68BA403243C2604A68CD
:101AC00012F0805FABD0002201921D4A546C44F4A6
:101AD00080445464526C02F480420192019A9C0842
:101AE000A61C154A52F8267003F0030296000F2236
:101AF000B24027EA0207134A90423FF45CAF02F576
:101B0000806290420ED002F5806290420CD002F5C5
:101B1000806290420AD002F5806290423FF449AF61
:101B2000072249E7012247E7022245E7032243E76C
:101B300002B0F0BC7047704700380140003C0140E3
:101B400000380240000002400369194201D1002020
:101B500070470120704712B90904816170478161A3
:101B60007047704708B5054B5B69034200D108BD5B
:101B7000024B5861FFF7F5FFF9E700BF003C014059
:101B8000002800F0BB8170B582B00446036813F0F2
:101B9000010F3BD0A74B9B6803F00C03042B2CD008
:101BA000A44B9B6803F00C03082B21D06368B3F5AA
:101BB000803F4FD0B3F5A02F52D09E4B1A6822F42D
:101BC00080321A601A6822F480221A606368002B3F
:101BD00050D0FFF7E1FB0546964B1B6813F4003F1E
:101BE00014D1FFF7D9FB401B6428F5D903208AE103
:101BF000904B5B6813F4800FD8D08E4B1B6813F4A6
:101C0000003F03D06368002B00F07A81236813F053
:101C1000020F55D0874B9B6813F00C0F3ED0854BBD
:101C20009B6803F00C03082B33D0E368002B68D0CB
:101C3000814B01221A60FFF7AFFB05467D4B1B6805
:101C400013F0020F54D1FFF7A7FB401B0228F5D970
:101C5000032058E1774A136843F480331360B5E7F3
:101C6000744B1A6842F480221A601A6842F4803277
:101C70001A60ABE7FFF790FB05466E4B1B6813F449
:101C8000003FC3D0FFF788FB401B6428F5D9032031
:101C900039E1684B5B6813F4800FC6D1654B1B6854
:101CA00013F0020F04D0E368012B01D001202AE1D8
:101CB000604A136823F0F803216943EAC103136003
:101CC000236813F0080F40D0636963B35B4B0122B4
:101CD0001A60FFF761FB0546564B5B6F13F0020F6E
:101CE00033D1FFF759FB401B0228F5D903200AE145
:101CF000504A136823F0F803216943EAC1031360D3
:101D0000DEE74D4B00221A60FFF746FB0546494BC4
:101D10001B6813F0020FD3D0FFF73EFB401B0228D5
:101D2000F5D90320EFE0454B00221A60FFF734FBA2
:101D30000546404B5B6F13F0020F06D0FFF72CFBFC
:101D4000401B0228F5D90320DDE0236813F0040FBF
:101D500079D0384B1B6C13F0805F33D10023019393
:101D6000344B1A6C42F080521A641B6C03F080539F
:101D70000193019B0125324B1B6813F4807F23D014
:101D8000A368012B34D0052B38D02A4B1A6F22F0D0
:101D900001021A671A6F22F004021A67A368002B67
:101DA00036D0FFF7F9FA0646224B1B6F13F0020FED
:101DB00048D1FFF7F1FA801B41F288339842F3D9FA
:101DC0000320A0E00025D6E71D4A136843F4807382
:101DD0001360FFF7E1FA0646194B1B6813F4807F86
:101DE000CED1FFF7D9FA801B0228F5D903208AE06B
:101DF000104A136F43F001031367CFE70D4B1A6FBF
:101E000042F004021A671A6F42F001021A67C5E72E
:101E1000FFF7C2FA0646074B1B6F13F0020F11D0F3
:101E2000FFF7BAFA801B41F288339842F3D90320B6
:101E300069E000BF0038024000004742800E474280
:101E400000700040E5B9A369002B5BD0304A92686E
:101E500002F00C02082A58D0022B17D02D4B00227A
:101E60001A60FFF799FA0446294B1B6813F0007FAC
:101E700042D0FFF791FA001B0228F5D9032042E077
:101E8000234A136C23F080531364DCE7214B0022B8
:101E90001A60FFF781FA05461D4B1B6813F0007F9F
:101EA00006D0FFF779FA401B0228F5D903202AE073
:101EB000E369226A1343626A43EA8213A26A520800
:101EC000013A43EA0243E26A43EA0263104A53607A
:101ED000104B01221A60FFF75FFA04460C4B1B6897
:101EE00013F0007F06D1FFF757FA001B0228F5D93F
:101EF000032008E0002006E0002004E001207047F5
:101F0000012000E0002002B070BD0120FBE700BF0F
:101F10000038024060004742264B9B6803F00C03E8
:101F2000042B44D0082B01D0234870472DE9F04BF7
:101F3000204B5A6802F03F025B6813F4800F13D005
:101F40001C4B5968C1F3881100231C48A1FB0001F8
:101F5000FEF7DAFD174B5B68C3F3014301335B0007
:101F6000B0FBF3F0BDE8F08B124B5B68C3F3881352
:101F70001E4600275C010025E41A65EB0705A90150
:101F800041EA9461A001001B61EB0501CB0043EA2B
:101F90005073C400A01943EB07018B0243EA90532E
:101FA0008402204619460023FEF7AEFDD2E703481F
:101FB000704700BF003802400024F40040787D01E3
:101FC000002800F09D8070B504464F4B1B6803F05D
:101FD0000F038B4209D2CBB24B4A1370136803F044
:101FE0000F038B4201D0012070BD236813F0020F54
:101FF00017D013F0040F04D0444A936843F4E0531D
:102000009360236813F0080F04D0404A936843F4A8
:10201000604393603D4A936823F0F003A068034354
:1020200093600D46236813F0010F32D06368012BD3
:1020300021D09A1E012A25D9344A126812F0020FC3
:1020400060D032498A6822F0030213438B60FFF7A5
:10205000A3F906462D4B9B6803F00C036268B3EBB3
:10206000820F16D0FFF798F9801B41F2883398420F
:10207000F0D90320B8E7254A126812F4003FE0D1F6
:102080000120B1E7214A126812F0007FD9D1012066
:10209000AAE71D4B1B6803F00F03AB4209D9EAB254
:1020A000194B1A701B6803F00F03AB4201D00120DB
:1020B0009AE7236813F0040F06D0144A936823F4B8
:1020C000E053E1680B439360236813F0080F07D0D7
:1020D0000E4A936823F46043216943EAC103936085
:1020E000FFF71AFF094B9B68C3F30313084AD35C3D
:1020F000D840084B18600020FFF704F9002073E770
:102100000120704701206FE7003C02400038024088
:1021100064690108F8010020014B1868704700BF8E
:10212000F801002008B5FFF7F7FF044B9B68C3F3E5
:102130008223034AD35CD84008BD00BF0038024068
:102140007469010808B5FFF7E7FF044B9B68C3F308
:102150004233034AD35CD84008BD00BF0038024078
:1021600074690108F8B505460F4616461C463BE063
:102170002CB1FFF711F9069BC01AA04234D32A688C
:10218000536823F0E00353606B68B3F5827F0BD094
:10219000AB6AB3F5005F14D0012385F851300023FA
:1021A00085F85030032027E0AB68B3F5004F02D02C
:1021B000B3F5806FECD12A68136823F040031360F5
:1021C000E6E72A68136823F400531B041B0C136012
:1021D0002A68136843F400531360DDE70123B34218
:1021E00009D0B4F1FF3FC3D12B689B6837EA0303E2
:1021F000F4D00023F3E70020F8BD10B582B0044608
:1022000000920B4600228021FFF7ACFF034610B975
:10221000184602B010BD636D43F0200363650323CD
:10222000F6E700283BD010B504460023836290F8FF
:102230005130002B2ED0022384F8513022681368CD
:1022400023F0400313606368A2681343E2681343FA
:102250002269134362691343A26902F400721343B3
:10226000E2691343226A1343A16A22680B43136095
:10227000638B03F00403616A22680B435360226896
:10228000D36923F40063D36100206065012384F8DF
:10229000513010BD80F8503004F092FDCBE70120A2
:1022A00070472DE9F04184B01E4690F85030012B64
:1022B00000F0C88004460D469046012380F8503057
:1022C000FFF76AF8074694F85130DBB2012B0AD0C9
:1022D0000223012284F85120002284F8502018465D
:1022E00004B0BDE8F081002D00F0A480B8F1000F2B
:1022F00000F0A280032384F8513000236365256336
:10230000A4F83480A4F83680A363A387E3876364CA
:102310002364A368B3F5004F1BD023681A6812F03A
:10232000400F03D11A6842F040021A60E368B3F527
:10233000006F14D063681BB1E38E9BB2012B3ED1BA
:10234000236815F8012B1A73E38E013B9BB2E386D9
:1023500035E02268136843F480431360DDE7636867
:102360001BB1E38E9BB2012B0DD1236835F8022BF4
:10237000DA60E38E013B9BB2E38604E0002E5DD081
:10238000B6F1FF3F0FD1E38E9BB27BB323689A680F
:1023900012F0020FF2D035F8022BDA60E38E013B27
:1023A0009BB2E386EFE7FEF7F7FFC01BB042EAD32C
:1023B00003238EE7002E43D0B6F1FF3F0FD1E38E0B
:1023C0009BB29BB123689A6812F0020FF2D015F805
:1023D000012B1A73E38E013B9BB2E386EFE7FEF716
:1023E000DBFFC01BB042EAD3032372E700973346FA
:1023F000012202212046FFF7B5FE08B1032368E75A
:102400003A4631462046FFF7F8FE034618B120232E
:10241000636501235DE7A26832B903922268D1683F
:10242000039192680392039A626D002A3FF451AFC0
:1024300001234EE701234CE701234AE7032348E742
:10244000032346E702234AE72DE9F04385B0994686
:102450000C9D90F85030012B00F0108104460F467F
:102460001646012380F85030FEF796FF804694F818
:102470005130DBB26268012B15D0B2F5827F0AD0F1
:102480000223012284F85120002284F850201846AB
:1024900005B0BDE8F083A268002A40F0E780042B75
:1024A00001D00223EDE7002F00F0E280002E00F0C3
:1024B000E180B9F1000F00F0DF8094F85130DBB219
:1024C000012B2BD000236365A663A4F83E90A4F8EB
:1024D0003C902763A4F83690A4F834902364636496
:1024E00023681A6812F0400F03D11A6842F04002C4
:1024F0001A60E368B3F5006F14D063681BB1E38E14
:102500009BB2012B07D1236817F8012B1A73E38EB6
:10251000013B9BB2E3864FF0010961E0052384F89B
:102520005130CFE763681BB1E38E9BB2012B07D11B
:10253000236837F8022BDA60E38E013B9BB2E38617
:102540004FF0010913E0E38F9BB26BB123689A68E7
:1025500012F0010F08D0DB6826F8023BE38F013B45
:102560009BB2E3874FF00109B5F1FF3F1CD1E38E29
:102570009BB21BB9E38F9BB2002B55D0B9F1000F72
:10258000E1D0E38E9BB2002BDDD023689A6812F075
:10259000020FD8D037F8022BDA60E38E013B9BB2F2
:1025A000E3864FF00009CEE7FEF7F6FEA0EB080049
:1025B000A842DCD3032364E7E38F9BB26BB12368AB
:1025C0009A6812F0010F08D0DB683370E38F013B8B
:1025D0009BB2E38701364FF00109B5F1FF3F1BD1F4
:1025E000E38E9BB213B9E38F9BB2EBB1B9F1000F4D
:1025F000E2D0E38E9BB2002BDED023689A6812F003
:10260000020FD9D03A781A73E38E013B9BB2E3866E
:1026100001374FF00009CFE7FEF7BEFEA0EB080040
:10262000A842DDD303232CE7CDF800802B460122FE
:1026300002212046FFF796FD08B1032321E7424619
:1026400029462046FFF7D9FD034618B120236365CC
:10265000012316E7A268002A7FF413AF03922268D1
:10266000D168039192680392039A0AE7022308E76C
:10267000012306E7012304E7012302E7022306E71B
:102680002DE9F843044601680A6922F44052C36800
:1026900013430B610168CA6822F4164222F00C024F
:1026A00083680069034360690343E069034313439C
:1026B000CB6021684A6922F44072A36913434B61DD
:1026C000E369B3F5004F60D02368B84A934200F045
:1026D000148102F58062934200F00F81FFF722FD22
:1026E00000EB800000EB80006568AD00B0FBF5F505
:1026F000AF4FA7FB05356D092E01FFF713FD00EB6A
:10270000800000EB80006568AD00B0FBF5F9FFF7D5
:1027100009FD00EB800000EB80006568AD00B0FBB8
:10272000F5F5A7FB05356D094FF0640808FB159515
:102730002D013235A7FB05356D0905F0F00535444F
:10274000FFF7F0FC00EB800000EB80006668B6004D
:10275000B0FBF6F6FFF7E6FC00EB800000EB800034
:1027600063689B00B0FBF3F0A7FB0030400908FB57
:1027700010684FEA081808F13208A7FB0837C7F3BA
:10278000431723682F449F600DE12368874A9342D3
:102790005BD002F58062934257D0FFF7C3FC00EB99
:1027A000800000EB800065686D00B0FBF5F5804FA0
:1027B000A7FB05356D092E01FFF7B4FC00EB800087
:1027C00000EB800065686D00B0FBF5F9FFF7AAFC2F
:1027D00000EB800000EB800065686D00B0FBF5F554
:1027E000A7FB05356D094FF0640808FB1595ED0052
:1027F0003235A7FB05356D096D0005F4F8753544D4
:10280000FFF790FC00EB800000EB8000666876002C
:10281000B0FBF6F6FFF786FC00EB800000EB8000D3
:1028200063685B00B0FBF3F3A7FB03235B0908FBC2
:1028300013684FEAC80808F13208A7FB0837C7F346
:10284000421723682F449F60ADE0FFF77BFC00EB4D
:10285000800000EB800065686D00B0FBF5F5544F1B
:10286000A7FB05356D092E01FFF76CFC00EB80001E
:1028700000EB800065686D00B0FBF5F9FFF762FCC6
:1028800000EB800000EB800065686D00B0FBF5F5A3
:10289000A7FB05356D094FF0640808FB1595ED00A1
:1028A0003235A7FB05356D096D0005F4F875354423
:1028B000FFF748FC00EB800000EB800066687600C4
:1028C000B0FBF6F6FFF73EFC00EB800000EB80006B
:1028D00063685B00B0FBF3F3A7FB03235B0908FB12
:1028E00013684FEAC80808F13208A7FB0837C7F396
:1028F000421723682F449F6055E0FFF723FC00EB4D
:10290000800000EB80006568AD00B0FBF5F5284F56
:10291000A7FB05356D092E01FFF714FC00EB8000C5
:1029200000EB80006568AD00B0FBF5F9FFF70AFC2D
:1029300000EB800000EB80006568AD00B0FBF5F5B2
:10294000A7FB05356D094FF0640808FB15952D01AF
:102950003235A7FB05356D0905F0F0053544FFF765
:10296000F1FB00EB800000EB80006668B600B0FB76
:10297000F6F6FFF7E7FB00EB800000EB80006368F2
:102980009B00B0FBF3F0A7FB0030400908FB106888
:102990004FEA081808F13208A7FB0837C7F34317B6
:1029A00023682F449F60BDE8F88300BF00100140FA
:1029B0001F85EB512DE9F04105460F461646984616
:1029C000069C2B681B6837EA03030CBF0123002316
:1029D000B3421DD1B4F1FF3FF3D02CB1FEF7DCFCC4
:1029E000A0EB0800A042ECD92A68D36823F4D07386
:1029F000D3602A68536923F001035361202385F8CB
:102A0000393085F83A30002385F83830032000E06B
:102A10000020BDE8F08158B310B5044690F8393075
:102A20000BB3242384F839302268D36823F400538D
:102A3000D3602046FFF724FE2268136923F49043F5
:102A400013612268536923F02A0353612268D36813
:102A500043F40053D3600020E063202384F839302E
:102A600084F83A3010BD80F8383004F057FAD8E7CF
:102A7000012070472DE9F04182B01E4690F83930B0
:102A8000DBB2202B55D104460D469046002955D087
:102A9000002A55D090F83830012B53D0012380F80C
:102AA00038300023C363212380F83930FEF774FCEB
:102AB0000746A4F82480A4F8268010E000963B4640
:102AC000002280212046FFF775FF00283CD12B888B
:102AD0002268C3F3080353602369C3B90235E38C4A
:102AE0009BB2B3B1E38C013B9BB2E384A368B3F523
:102AF000805FE3D000963B46002280212046FFF70E
:102B000059FF18BB2A7823685A600135E7E7013579
:102B1000E5E700963B46002240212046FFF74AFFAA
:102B20000346A8B9202284F83920002284F83820EE
:102B300000E00223184602B0BDE8F0810123F9E766
:102B40000123F7E70223F5E70323F3E70323F1E784
:102B50000323EFE708B580210148FEF7F5FF08BD24
:102B60000008024008B5012280210248FEF7F3FF69
:102B700008BD00BF0008024010B5094C00228021AA
:102B80002046FEF7E8FF002240212046FEF7E3FF43
:102B900000224FF480712046FEF7DDFF10BD00BF1C
:102BA0000008024010B50A4C002240212046FEF7E2
:102BB000D2FF00224FF480712046FEF7CCFF0122A5
:102BC00080212046FEF7C7FF0320FEF7EBFB10BD78
:102BD0000008024010B5064C00224FF480712046D8
:102BE000FEF7B9FF012240212046FEF7B4FF10BDD9
:102BF0000008024008B500224FF400410148FEF7EA
:102C0000AAFF08BD0004024008B501224FF40041AC
:102C10000148FEF7A0FF08BD0004024000B583B0E4
:102C200002A901F8040D0A2301220348FFF739FB2A
:102C300003B05DF804FB00BFFC58012010B5FFF79E
:102C4000D9FF002405E0154B185DFFF7E7FF0134BD
:102C5000E4B20A2CF7D9FFF7D7FFFFF7CBFF22200A
:102C6000FFF7DCFF002404E0E720FFF7D7FF013483
:102C7000E4B2032CF8D9FFF7C7FFFFF7BBFF202012
:102C8000FFF7CCFF002404E00020FFF7C7FF01346A
:102C9000E4B21F2CF8D9FFF7B7FF10BD586901083F
:102CA00038B505460C46FFF7A5FF2046FFF7B6FFEF
:102CB000002407E0E00025FA00F0C0B2FFF7AEFF05
:102CC0000134E4B2032CF5D9FFF79EFF38BD0000B4
:102CD00000B585B00A230093012303AAFF2104480D
:102CE000FFF7B2FB9DF80C0005B05DF804FB00BFD8
:102CF000FC58012010B5FFF77DFFFFF7E9FF044600
:102D0000FFF782FF204610BD08B5FFF7F3FF00F084
:102D1000200008BD08B50521FFF7C2FF08BD00006F
:102D20002DE9F04180460D4616461F4602E001207F
:102D3000FEF738FBFFF7E8FF04460028F7D1222111
:102D40004046FFF7ADFFFFF705FF60B101224FF4EA
:102D500080711C48FEF7FFFEA5B1FFF74BFF202056
:102D6000FFF75CFF0AE0FFF71DFF0320FEF71AFBE9
:102D7000ECE7285DFFF752FF0134E4B2B442F8D328
:102D8000FFF742FF0F4C012240212046FEF7E3FEF1
:102D90000120FEF707FB002240212046FEF7DBFE64
:102DA000012F03D047B10120BDE8F0810120FEF7DB
:102DB000F9FAFFF70FFFF6E70120FEF7F3FAFFF746
:102DC000F1FEF0E70008024008B5FFF7CBFEFFF781
:102DD00001FF08BD08B5FFF717FFFFF7CDFEFFF7AE
:102DE000E1FEFFF7F1FFFFF729FF08BD70B50646CA
:102DF0000D46202900D92025FFF7FCFE2420FFF7EF
:102E00000DFF002404E0FFF763FF30550134E4B206
:102E1000A542F8D870BD38B50546FFF7EBFE102087
:102E2000FFF7FCFE002404E0FFF752FF28550134B1
:102E3000E4B2092CF8D9FFF7E7FE38BD00880B880B
:102E4000C01A704708B502F0AFFA012008BD00B5FE
:102E500083B002A8992300F8043D012104F09AF8F8
:102E6000012003B05DF804FB30B583B002238DF878
:102E7000003000248DF801408DF802408DF80340A9
:102E80008DF8044064238DF8053001258DF8065037
:102E90000721684604F07EF812238DF800300721E0
:102EA000684604F077F822238DF800308DF8014051
:102EB0008DF8025086238DF80330A0238DF804305E
:102EC0000721684604F066F8284603B030BD0000CC
:102ED00030B583B0044696238DF80030394B1B681B
:102EE000834216D0374B5B68A34216D0354B9B68A4
:102EF000A34230D0334BDB68A34230D0314B1B6947
:102F0000A3425AD00221684604F044F8012003B0DD
:102F100030BD01238DF80130E4E794238DF80030B3
:102F2000294B1B681A0E8DF801201A0C8DF802200F
:102F30001A0A8DF803208DF804300521684604F044
:102F400029F80A20FEF72EFA96238DF80030022386
:102F50008DF80130CAE703238DF80130CAE79423C6
:102F60008DF80030184D2B681A0E8DF801201A0CC0
:102F70008DF802201A0A8DF803208DF804300521FF
:102F8000684604F007F80A20FEF70CFA95238DF83E
:102F90000030AB881A0A8DF801208DF80230032129
:102FA000684603F0F7FF0A20FEF7FCF996238DF838
:102FB000003004238DF80130A0E705238DF801309F
:102FC000A0E700BF480700200800002008B5034B19
:102FD000586905F0D9F9012008BD00BF4807002055
:102FE00008B5034B986905F0CFF9012008BD00BF73
:102FF00048070020000000002DE9F04399B00024AC
:1030000013941494062311930123129311A9444895
:10301000FEF798FB1394052C14DC414D2846FEF76F
:1030200097FA01212846FEF72FFB2846FEF787FB7B
:1030300018AB03EB440323F80C0C2846FEF704FB03
:103040000134E8E7374B0222052115A811F092FE62
:10305000BDF85800FDF706FA2FA3D3E90023FDF7CA
:103060007BFA0022304BFDF7A1FB02460B462F4DA9
:10307000C5E902232E4804F057F82E4C0B23237782
:10308000052304F12802012104F11C0003F0DAFFFA
:1030900094F8290094F82A3043EA0020FDF7F2F969
:1030A00006460F4694F82B0094F82C3043EA002093
:1030B000FDF7E8F98046894600221B4B3046394629
:1030C000FDF774FBC5E904010022174B4046494651
:1030D000FDF76CFBC5E9060104F072FF002104F066
:1030E000DDFF002104F0DAFF0446D5E90423D5E929
:1030F0000201CDE90201D5E90601CDE900010E4941
:1031000004A811F05FFF04A920460EF0A9FA19B037
:10311000BDE8F083AFF300803BDF4F8D97EE1040AA
:10312000B45801203D2E000800408F4008000020C8
:10313000BC25050848070020D02505080000000030
:1031400030B583B0FDF7A2FF01238DF804300020D5
:10315000FDF7AAFF544BD3E90E2351EC100BFDF7FA
:1031600043F802460B46104623F000414CA3D3E936
:103170000023FDF781FC60BB0120FDF795FF4A4B62
:10318000D3E9102351EC100BFDF72EF802460B4645
:10319000104623F0004142A3D3E90023FDF76CFC65
:1031A000A0BB0220FDF780FF3F4BD3E9122351EC77
:1031B000100BFDF719F802460B46104623F00041AC
:1031C00037A3D3E90023FDF757FC002845D103B00E
:1031D00030BD0020FDF768FF55EC104B324B83EDFE
:1031E0000E0B93F85820314B134493F82000FDF751
:1031F00049F922462B46FDF7AFF9FDF75DFC8DF846
:103200000500022101A803F0C5FEB5E70120FDF786
:103210004BFF53EC102B244880ED100B9DF804104D
:1032200041F010018DF8041010EE104A03F1004532
:1032300090F858201D4B134493F82000FDF722F915
:1032400022462B46FDF788F9FDF736FC8DF8050080
:10325000022101A803F09EFEA3E70220FDF724FF50
:1032600055EC104B104A82ED120B9DF8043043F0E0
:1032700020038DF8043092F858200C4B134493F837
:103280002000FDF7FFF822462B46FDF765F9FDF714
:1032900013FC8DF80500022101A803F07BFE96E7E0
:1032A0007B14AE47E17A843F4807002008000020E5
:1032B0002DE9F04389B004F083FE00210EF0E0FE1A
:1032C000054641490EF094FE4FF49B71284605F0E7
:1032D000CFFD00240094234622462146284605F0CF
:1032E000B2F83A4F3E4656F8240B394BA3FB002365
:1032F000DB0A4FF4616101FB1301364AA2FB01C1F5
:1033000049094FF0640C0CFB01F142F2107C0CFBFC
:103310000311A2FB00235B09C3EB03139A00831A7A
:103320000B44DFF8C080C8F85C30214628460EF018
:1033300055FAC8F86000009423462246294605F055
:1033400082F8D8F85C00FDF78DF802460B4622495A
:1033500003A811F037FE03A9D8F860000EF080F939
:10336000214628460BF0A4FF814631460BF0A6FE0D
:103370001A4948460BF0DEFCF0224FF4987148469B
:1033800005F03CFDD8F86010009423460D22484615
:1033900005F059F8224607F1600128460EF00AFFB1
:1033A0000F4928460EF0F2FC00942346224621469F
:1033B000284605F048F8214628460EF0F0FC204645
:1033C00009B0BDE8F08300BFEC2505080800002027
:1033D000C5B3A29189888888082605083137000876
:1033E000BD350008480700202DE9F04188B004F001
:1033F000E7FD00210EF044FE054630490EF0F8FDD1
:103400004FF49B71284605F033FD002400942346B9
:1034100022462146284605F016F8294E294F97F8EE
:103420006C30F365214628460EF0D8F930660094DA
:1034300023462246294605F006F8F06DFDF712F8FE
:1034400002460B46204903A811F0BCFD03A9306ECB
:103450000EF006F9214628460BF02AFF804607F1B8
:1034600070010BF02BFE194940460BF063FCF02273
:103470004FF49871404605F0C1FC316E009423462C
:103480000D22404604F0DFFF224607F1AC0128463A
:103490000EF090FE0E4928460EF078FC009423466C
:1034A00022462146284604F0CEFF214628460EF04B
:1034B00076FC204608B0BDE8F08100BF1026050864
:1034C00048070020080000200826050831370008BA
:1034D000AD3700082DE9F04188B004F071FD0021FE
:1034E0000EF0CEFD05462F490EF082FD4FF49B7184
:1034F000284605F0BDFC00240094234622462146C0
:10350000284604F0A0FF284E284FBB88F3652146CB
:1035100028460EF063F93066009423462246294679
:1035200004F091FFF06DFCF79DFF02460B46204929
:1035300003A811F047FD03A9306E0EF091F8214663
:1035400028460BF0B5FE804607F1B8010BF0B6FD3A
:10355000184940460BF0EEFBF0224FF498714046BC
:1035600005F04CFC316E009423460D22404604F0D9
:103570006AFF224607F1F40128460EF01BFE0E49B1
:1035800028460EF003FC0094234622462146284696
:1035900004F059FF214628460EF001FC204608B0F1
:1035A000BDE8F08138260508480700200800002003
:1035B0000826050831370008B13800082DE9F04326
:1035C0008BB0044608465149FDF71EFC002840F028
:1035D00088804F4BD86D4F4BA3FB00235B0B42F20F
:1035E000107202FB13024C49A1FB02525209C2EBBA
:1035F000021295004FF4616202FB0353A1FB00121B
:103600005209642101FB12021344444A9188B3FB1E
:10361000F1F2012A6FD9D2B2404B83F86C2001FB42
:1036200002F21A603A4E0021706E04F02DFD8046C1
:103630003A4D95F86C00FCF715FF394F02460B46E2
:10364000394605A811F0BEFC05A940460EF008F861
:103650000021B06E04F018FD8046A888FCF702FF38
:1036600002460B46394605A811F0ACFC05A94046B8
:103670000DF0F6FFAA8895F86C3003FB02F32B607F
:103680000021F06E04F000FD06462A682548A0FBE4
:103690000230254DA5FB02135B09A5FB03156D093F
:1036A000C5EB0515A9005D1AC3EB03139F00D71BDB
:1036B000C00AFCF7D7FE804689463846FCF7D2FEA2
:1036C000CDE902012846FCF7CDFECDE900014246D6
:1036D0004B46164905A811F075FC05A930460DF0BA
:1036E000BFFF20460EF08CFB01210EF05FFB012096
:1036F0000BB0BDE8F083094A022182F86C10C3F3D5
:103700004F0393805B0013608CE700BF4C260508D5
:10371000480700205917B7D11F85EB51080000203A
:1037200054260508C5B3A291898888885C260508B7
:1037300070B58EB00C4618492046FDF765FB40B1C8
:1037400016492046FDF760FBD8B9154B0022DA6513
:1037500006E0134AD36D1349A1FB0313DB08D365BD
:103760000F4CE06DFCF77EFE02460B460E4901A8A9
:1037700011F028FC01A9206E0DF072FF01200EB09F
:1037800070BD074EF36D03EB83035D00204610F020
:103790001BFE2844F065E3E7702605087826050837
:1037A00048070020CDCCCCCC082605082DE9F043F5
:1037B0008BB0054608463749FDF726FB002859D14E
:1037C000354B93F85C30354A82F86C30012B5BD96D
:1037D000314E706E04F0C4FDF06E04F0C1FD0021A6
:1037E000706E0DF0FBFF07462C4C94F86C00FCF754
:1037F00039FE02460B462A4905A811F0E3FB05A94C
:1038000038460DF02DFFA28894F86C3003FB02F3CC
:1038100023600021F06E0DF0E1FF0646226821488A
:10382000A0FB0230204CA4FB02135B09A4FB031491
:103830006409C4EB0414A1005C1AC3EB03139F00DA
:10384000D71BC00AFCF70EFE804689463846FCF7B7
:1038500009FECDE902012046FCF704FECDE9000196
:1038600042464B46114905A811F0ACFB05A930466C
:103870000DF0F6FE28460EF0C3FA01210EF096FA7E
:1038800001200BB0BDE8F0831346022283F86C20C0
:103890009EE700BF4C2605084807002008000020CE
:1038A00054260508C5B3A291898888885C26050836
:1038B0002DE9F0438BB0054608463149FDF7A4FADF
:1038C00048B128460EF09CFA01210EF06FFA012053
:1038D0000BB0BDE8F0832B4C2B4EF36DA380B06E84
:1038E00004F03EFDF06E04F03BFD0021B06E0DF0E3
:1038F00075FF0746A088FCF7B5FD02460B46234935
:1039000005A811F05FFB05A938460DF0A9FEA288B5
:1039100094F86C3003FB02F323600021F06E0DF08D
:103920005DFF064622681A48A0FB0230194CA4FB32
:1039300002135B09A4FB03146409C4EB0414A10083
:103940005C1AC3EB03139F00D71BC00AFCF78AFD68
:10395000804689463846FCF785FDCDE902012046C0
:10396000FCF780FDCDE9000142464B460A4905A817
:1039700011F028FB05A930460DF072FEA1E700BF4B
:103980004C2605080800002048070020542605089A
:10399000C5B3A291898888885C26050810B50E4CAD
:1039A00094F85830013303F0010348BF5B4284F8B8
:1039B000583004F005FB002104F070FB002104F0F6
:1039C00063FB94F858301BB904490DF049FE10BD53
:1039D00003490DF045FEFAE7480700208826050850
:1039E0008026050810B56C4B93F87030002B00F062
:1039F000B880694B93F871307BB1674B93F87130A5
:103A0000012B24D0644B93F87130022B39D0624BD8
:103A100093F87130042B6CD010BD5F4C00212068EE
:103A20000AF032FD0021606F0AF02EFD002160686F
:103A30000AF02AFD0421A0680AF026FD0021E068B2
:103A40000AF022FD042120690AF01EFDD5E7524C40
:103A5000042120680AF018FD0421606F0AF014FDAB
:103A6000042160680AF010FD0421A0680AF00CFD32
:103A70000421E0680AF008FD002120690AF004FD35
:103A8000C0E7454B93F87830CBB1434C0421206814
:103A90000AF0FAFC0421606F0AF0F6FC002160686D
:103AA0000AF0F2FC0421A0680AF0EEFC0421E068B0
:103AB0000AF0EAFC002120690AF0E6FCA7E7364C90
:103AC000042120680AF0E0FC0421606F0AF0DCFCAD
:103AD000042160680AF0D8FC0021A0680AF0D4FC38
:103AE0000421E0680AF0D0FC002120690AF0CCFC37
:103AF0008DE7294B93F87830CBB1274C042120680F
:103B00000AF0C2FC0421606F0AF0BEFC0421606868
:103B10000AF0BAFC0421A0680AF0B6FC0021E068B3
:103B20000AF0B2FC002120690AF0AEFC74E71A4CDE
:103B3000042120680AF0A8FC0421606F0AF0A4FCAC
:103B4000042160680AF0A0FC0021A0680AF09CFC37
:103B50000421E0680AF098FC002120690AF094FC36
:103B60005AE70D4C042160680AF08EFC0421A0681D
:103B70000AF08AFC0421E0680AF086FC042120692E
:103B80000AF082FC042120680AF07EFC0421606FA8
:103B90000AF07AFC40E700BF480700200000000060
:103BA000F0B58BB0C64BD3E90401D3E90623CDE9C8
:103BB000002302460B46C34902A811F003FAC24C87
:103BC00002A9E06F0DF04CFD0A232377092304F1CD
:103BD0002802012104F11C0003F034FA94F8283083
:103BE0000A2B00F08980B84C94F82E0000F00F03E7
:103BF00084F87130C0F3001384F87030C0F34013C0
:103C000084F87830850994F82F6094F83010D4F84F
:103C100084000AF02AF93146D4F888000AF025F920
:103C20000A20FDF7BFFB1A232377082304F128029B
:103C3000012104F11C0003F005FA94F828300A2B46
:103C400077D00A20FDF7AEFB9F4C2A232377082369
:103C500004F12802012104F11C0003F0F3F994F8A7
:103C600028300A2B00F08180974BD3F8940004F0A1
:103C7000FFF9044604F0A4F9844200F0938004F0B4
:103C80009FF9914B9B69834200F0B980FFF7AAFE30
:103C90008D4BD3F8980004F0EBF9044604F090F94A
:103CA000844200F0B280884BD3F89C0004F0E0F925
:103CB000044604F085F9844200F0C180824BD3F8B9
:103CC000A00004F0D5F9044604F07AF9844200F02B
:103CD000D08004F075F9002104F0E0F9002104F02F
:103CE000D3F9794B93F85830002B40F0DC807749BA
:103CF0000DF0B6FC0BB0F0BD94F82930002B7FF42A
:103D000072AF224694F82A1094F82B301B0443EA31
:103D1000016394F82C1043EA012394F82D100B430F
:103D20001946002B03DB8910C2F880105BE7D91C11
:103D3000F9E794F82930012B83D1224694F82A1010
:103D400094F82B301B0443EA016394F82C1043EAE7
:103D5000012394F82D100B431946002B03DB891027
:103D6000C2F88C106DE7D91CF9E794F82930022BC2
:103D70007FF47AAF224694F82A1094F82B301B0473
:103D800043EA016394F82C1043EA012394F82D10C0
:103D90000B431946002B03DB8910C2F8901063E730
:103DA000D91CF9E70021484BD3F8940004F06CF9D2
:103DB00004467DB1012D17D0022D7FF460AF444938
:103DC00020460DF04DFC00213F4BD3F894000AF043
:103DD0005BFB54E73F490DF043FC04213A4BD3F819
:103DE00094000AF051FBE5E73B4920460DF038FC12
:103DF0000021354BD3F894000AF046FBDCE7284657
:103E000001F006FB01F058FA40E72F4CD4F880008F
:103E1000FCF738FB06460F4625A3D3E90023FCF741
:103E20009BFBCDE9000132463B462C4902A811F02C
:103E3000C9F802A9D4F898000DF012FC33E7224C1F
:103E4000D4F88C00FCF71EFB06460F4618A3D3E9F6
:103E50000023FCF781FBCDE9000132463B462049B7
:103E600002A811F0AFF802A9D4F89C000DF0F8FBFD
:103E700024E7154CD4F89000FCF704FB06460F46E7
:103E80000DA3D3E90023FCF767FBCDE9000132461F
:103E90003B46144902A811F095F802A9D4F8A000F5
:103EA0000DF0DEFB15E710490DF0DAFB22E700BF4D
:103EB0000AD7A3703D0A873FB81E85EB51B88E3FE5
:103EC00008000020902605084807002088260508DD
:103ED000B8260508A0260508AC260508C42605084E
:103EE000DC260508F826050880260508034638B9AB
:103EF000084AD2F88000012B04D0022B06D070476C
:103F00000020F8E7034AD2F88C00F6E7014BD3F81B
:103F10009000F4E7480700202DE9F0438DB004F04D
:103F20004FF86B4B9B69834208D0694BD3F8A400D0
:103F300004F02AFA01200DB0BDE8F08302F07AFB0C
:103F40000A20FDF72FFA0CA8982300F81C3D604DBD
:103F5000052305F12802012103F074F895F82930B2
:103F600095F82A40240444EA036495F82B3044EA87
:103F7000032495F82C301C43564BA3FB04346409EE
:103F80002146554803F0D0F8544B1B68A3426CD22D
:103F9000524B9A88B4FBF2F3012B40F28E80DBB2D5
:103FA0004E4981F86C3002FB03F30B60484D002151
:103FB000686E04F069F80746484C94F86C00FCF70A
:103FC00051FA474E02460B46314607A810F0FAFF59
:103FD00007A938460DF044FB0021A86E04F054F800
:103FE0000746A088FCF73EFA02460B46314607A872
:103FF00010F0E8FF07A938460DF032FBA28894F8CC
:104000006C3003FB02F323600021E86E04F03CF8FF
:10401000064622683348A0FB0230334CA4FB02134F
:104020005B09A4FB03146409C4EB0414A1005C1A2B
:10403000C3EB03139D00551BC00AFCF713FA80461F
:1040400089462846FCF70EFACDE902012046FCF726
:1040500009FACDE9000142464B46244907A810F071
:10406000B1FF07A930460DF0FBFA0A20FDF79AF9D7
:1040700094238DF81430194C23681A0E8DF81520EE
:104080001A0C8DF816201A0A8DF817208DF81830A2
:10409000052105A802F07EFF0A20FDF783F995238C
:1040A0008DF81430A3881A0A8DF815208DF8163073
:1040B000032105A802F06EFF37E7084B022283F8C0
:1040C0006C20C4F34F049C8064001C606EE700BF4A
:1040D000480700201F85EB51142705080800002021
:1040E00054260508C5B3A291898888885C260508EE
:1040F0002DE9F04393B0044604F0B2FF2E4D05F1D4
:10410000A8060146304605F047FD2C4BC5F8CC30DB
:104110003146204604F0EEFE002120460DF05EFB05
:10412000E8670026009619230722214604F08BF940
:10413000234BD3E90401D3E90289CDE90289D3E90C
:104140000623CDE9002302460B461E4905A810F0C0
:1041500039FF05A9E86F0DF083FA314620460DF0CE
:104160003DFB0746009605230722214604F06BF924
:10417000154938460DF074FA314620460DF02EFBF5
:10418000C5F8E40000966FF013030822214604F0FE
:104190005AF995F8583043B90C49074BD3F8E40065
:1041A0000DF05EFA13B0BDE8F0830949D5F8E400DC
:1041B0000DF056FAF6E700BF48070020080200207D
:1041C00008000020D02505082427050888260508B2
:1041D00080260508000000002DE9F04F93B0064648
:1041E00000210AF091F9D64DC5F894002A229B21AE
:1041F00004F004FE00240094052301223146D5F882
:10420000940004F020F9CF4A2146D5F894000AF032
:104210004EF90421D5F894000AF036F92146D5F874
:1042200094000DF0DBFAC8490DF01AFA2146304629
:104230000AF06AF907462A229B2104F0DFFD009468
:1042400023461322D5F89410384604F0FCF8BF4AF0
:10425000214638460AF02BF9214638460DF0BEFAC1
:10426000BB490DF0FDF9214630460DF0B7FAC5F80F
:104270009800D5F88000FCF705F980468946ACA384
:10428000D3E90023FCF768F9CDE9000142464B462B
:10429000B04905A810F096FE05A9D5F898000DF0D4
:1042A000DFF9009423460C22D5F89410D5F8980035
:1042B00004F0C9F8214630460DF090FAC5F89C008C
:1042C000D5F88C00FCF7DEF88046894698A3D3E940
:1042D0000023FCF741F9CDE9000142464B469E49D7
:1042E00005A810F06FFE05A9D5F89C000DF0B8F9EF
:1042F000009423460C22D5F89810D5F89C0004F0C1
:10430000A2F8214630460DF069FAC5F8A000D5F8AC
:104310009000FCF7B7F88046894687A3D3E90023CD
:10432000FCF71AF9CDE9000142464B468B4905A836
:1043300010F048FE05A9D5F8A0000DF091F9009401
:1043400023460C22D5F89C10D5F8A00004F07BF889
:10435000214630460AF0D8F807462A229B2104F06D
:104360004DFD009423460C22D5F8A010384604F0E9
:104370006AF87B4A214638460AF099F821463846C1
:104380000DF02CFA77490DF06BF9214630460AF012
:10439000BBF880462A229B2104F030FD009423467E
:1043A00013223946404604F04EF86F4A21464046F3
:1043B0000AF07DF8214640460DF010FA6B490DF0E9
:1043C0004FF9214630460AF09FF8A8662A22B42108
:1043D00004F014FD009482230C223946A86E04F0E8
:1043E00032F8634A2146A86E0AF061F82146A86EA9
:1043F0000DF0F4F980465F4FB888FCF733F80246B9
:104400000B465D4905A810F0DDFD05A940460DF0FD
:1044100027F9214630460DF0E1F9804657490DF065
:104420001FF9009423461022A96E404604F00BF8B1
:10443000214630460AF068F868662A22B42104F062
:10444000DDFC009423460C22A96E686E03F0FBFF8E
:104450004B4A2146686E0AF02AF82146686E0DF034
:10446000BDF9804697F86C00FBF7FCFF02460B464F
:10447000444905A810F0A6FD05A940460DF0F0F846
:10448000214630460DF0AAF980463F490DF0E8F884
:10449000009423461022696E404603F0D4FF214663
:1044A00030460AF031F8E8662A22B42104F0A6FC6E
:1044B000009423460C22696EE86E03F0C4FF334A71
:1044C0002146E86E09F0F3FF2146E86E0DF086F90B
:1044D00083463A682E48A0FB02302E4FA7FB0213FA
:1044E0005B09A7FB03177F09C7EB0717B9005F1A22
:1044F000C3EB03134FEA830AA2EB0A0AC00AFBF7D5
:10450000B1FF804689465046FBF7ACFFCDE902017A
:104510003846FBF7A7FFCDE9000142464B461E494E
:1045200005A810F04FFD05A958460DF099F835E0A3
:104530000AD7A3703D0A873FB81E85EB51B88E3F5E
:10454000480700204F2E0008A0260508692E000805
:1045500028270508C4260508DC260508F8260508CE
:10456000E12F000830270508CD2F00084027050857
:10457000D534000808000020542605084427050803
:10458000E9330008542705085C270508B132000804
:10459000C5B3A291898888885C26050821463046E3
:1045A0000DF01CF9074681490DF05AF80094234696
:1045B0001022E96E384603F046FF2146304609F0E6
:1045C000A3FF28602A229B2104F018FC00946FF0BE
:1045D00081030C22E96E286803F035FF744F3A46D8
:1045E0002146286809F063FF0421286809F04CFF80
:1045F000214628680DF0F2F86E490DF031F8214699
:10460000304609F081FF68672A229B2104F0F6FBFF
:104610000094234613222968686F03F014FF664A4A
:104620002146686F09F043FF0421686F09F02CFFF1
:104630002146686F0DF0D2F860490DF011F821465F
:10464000304609F061FF68602A229B2104F0D6FB06
:10465000009423460C222968686803F0F4FE3A4669
:104660002146686809F023FF0421686809F00CFFFF
:10467000214668680DF0B2F851490CF0F1FF21466F
:10468000304609F041FFA8602A229B2104F0B6FBC6
:104690000094234613226968A86803F0D4FE3A46C2
:1046A0002146A86809F003FF0421A86809F0ECFE80
:1046B0002146A8680DF092F842490CF0D1FF21463E
:1046C000304609F021FFE8602A229B2104F096FB86
:1046D000009423460C226968E86803F0B4FE3A4669
:1046E0002146E86809F0E3FE0421E86809F0CCFE01
:1046F0002146E8680DF072F833490CF0B1FF21460D
:10470000304609F001FF28612A229B2104F076FB44
:10471000009423461322E968286903F094FE3A4680
:104720002146286909F0C3FE0421286909F0ACFE7E
:10473000214628690DF052F824490CF091FF2146DA
:10474000304609F0BFFBC5F884000A224FF49B7184
:1047500004F054FB0523009323460C22E968D5F8A6
:10476000840003F070FE2146D5F8840009F07DFB3B
:104770002146304609F0A6FBC5F888000A224FF40E
:104780009B7104F03BFB0323009323460C22D5F8D6
:104790008410D5F8880003F056FE2146D5F888002D
:1047A00009F063FB13B0BDE8F08F00BF6C2705086C
:1047B000D12E00087C270508452E0008842705080F
:1047C000942705089C270508A4270508AC27050899
:1047D0002DE9F04383B00021084604F0B5F93B4CC5
:1047E000C4F8A4000021084604F0AEF9A06100213D
:1047F000084604F0A9F960610021D4F8A4000CF087
:104800002FF90746324D95F800214FF4A07104F0BE
:10481000F5FA0021D4F8A4000CF022F9064695F828
:104820000021C2F5F0724FF4A07104F0E7FA002500
:1048300000952B460D223946304603F004FE3846DB
:10484000FFF756FC3046FFF7C7FC3946A0690CF06D
:1048500007F981463146A0690CF002F980464846C6
:10486000FFF746FC404601F0A7FA394660690CF0B4
:10487000F7F80746314660690CF0F2F8064638460C
:10488000FFF736FC304601F0D7FFD4F8A40003F060
:104890007BFD2B4603224FF4C8710E4808F04AFEF8
:1048A0002B46032264210C4808F044FE2B460222CA
:1048B00032210A4808F03EFE2B4602224FF47A715C
:1048C000074808F037FE03B0BDE8F0834807002032
:1048D00008000020A13B0008413100085D55000898
:1048E000F92F000800880B88C01A7047064B1A88F9
:1048F000801A00EB8001C0EB81105B889B1A90FB53
:10490000F3F080B2704700BF18010020064B9A8870
:10491000801AC0EB0011C0EB4110DB889B1A90FBA2
:10492000F3F080B2704700BF1801002000B587B0D7
:10493000FF230193012302930323049301A9034856
:10494000FDF730F807B05DF804FB00BF000402403B
:104950002DE9F04186B04FF4E048CDF80480012401
:1049600002940494184D01A92846FDF71BF8FFF79F
:10497000DDFF0327019702940494144E01A93046E9
:10498000FDF710F8FFF7D2FF224641462846FDF713
:10499000E2F8224639463046FDF7DDF800224FF4B2
:1049A00080412846FDF7D7F8094E336820469847DE
:1049B00022464FF480412846FDF7CDF833680520A4
:1049C000984706B0BDE8F0810004024000000240B4
:1049D00044070020F8B54300DBB203F002064408A8
:1049E00004F0010E420102F08005C20002F0400C0A
:1049F00003F0200304F01007C40804F00804400981
:104A000000F0040146EA0E022A434CEA0202134374
:104A10003B431C430C43144D012221462846FDF71D
:104A20009AF884F47F4181F0FF010022C9B2284640
:104A3000FDF791F800224FF400512846FDF78BF85E
:104A400000224FF400512846FDF785F801224FF46B
:104A500000512846FDF77FF801224FF40051284607
:104A6000FDF779F8F8BD00BF0004024010B5C4B2EC
:104A7000000AFFF7AFFF2046FFF7ACFF10BD08B5F7
:104A8000FFF7A8FF08BD000010B50446012211463B
:104A90000348FDF760F82046FFF79CFF10BD00BFFC
:104AA0000000024008B5002201210248FDF753F83A
:104AB00008BD00BF0000024008B5012211460248AF
:104AC000FDF749F808BD00BF0000024010B50446DC
:104AD000FFF7E8FF2046FFF7C9FFFFF7EDFF10BD26
:104AE00010B50446FFF7DEFF2046FFF773FFFFF720
:104AF000E3FF10BD08B5002202210248FDF72BF8A4
:104B000008BD00BF0000024008B501220221024892
:104B1000FDF721F808BD00BF00000240F8B50746C8
:104B20000E4615461C46FFF7E5FF2A20FFF7CEFF8D
:104B3000380AFFF7A4FFF8B2FFF7A1FF280AFFF732
:104B40009EFFE8B2FFF79BFF2B20FFF7BFFF300A65
:104B5000FFF795FFF0B2FFF792FF200AFFF78FFFF4
:104B6000E0B2FFF78CFFFFF7CFFFED1BA41B601C2B
:104B700005FB0000F8BD000010B50446002201212D
:104B80000348FCF7E8FF2046FFF724FF10BD00BFF5
:104B90000000024010B50446012211460448FCF70B
:104BA000DAFF200AFFF716FFE0B2FFF713FF10BD90
:104BB0000000024008B5FFF7CBFE3220FCF7F2FB05
:104BC000FFF798FFF920FFF781FF0020FFF75CFF58
:104BD0000820FFF759FFC020FFF778FF1920FFF7E3
:104BE00053FF1A20FFF750FFC120FFF76FFF45204A
:104BF000FFF74AFF0020FFF747FFC220FFF766FFDD
:104C00003320FFF741FFC520FFF760FF0020FFF7CB
:104C10003BFF2820FFF738FFB120FFF757FF902018
:104C2000FFF732FF1120FFF72FFFB420FFF74EFFF1
:104C30000220FFF729FFB620FFF748FF0020FFF70B
:104C400023FF4220FFF720FF3B20FFF71DFFB72087
:104C5000FFF73CFF0720FFF717FFE020FFF736FFC5
:104C60001F20FFF711FF2520FFF70EFF2220FFF77F
:104C70000BFF0B20FFF708FF0620FFF705FF0A20B8
:104C8000FFF702FF4E20FFF7FFFEC620FFF7FCFEF6
:104C90003920FFF7F9FE0020FFF7F6FE0020FFF7AE
:104CA000F3FE0020FFF7F0FE0020FFF7EDFE0020EE
:104CB000FFF7EAFE0020FFF7E7FEE120FFF706FF1F
:104CC0001F20FFF7E1FE3F20FFF7DEFE3F20FFF74A
:104CD000DBFE0F20FFF7D8FE1F20FFF7D5FE0F20C9
:104CE000FFF7D2FE4620FFF7CFFE4920FFF7CCFEAC
:104CF0003120FFF7C9FE0520FFF7C6FE0920FFF7A8
:104D0000C3FE0320FFF7C0FE1C20FFF7BDFE1A20E4
:104D1000FFF7BAFE0020FFF7B7FEF120FFF7D6FE3F
:104D20003620FFF7B1FE0420FFF7AEFE0020FFF7AC
:104D3000ABFE3C20FFF7A8FE0F20FFF7A5FE0F20DB
:104D4000FFF7A2FEA420FFF79FFE0220FFF79CFEC4
:104D5000F220FFF7BBFE1820FFF796FEA320FFF717
:104D600093FE1220FFF790FE0220FFF78DFE322007
:104D7000FFF78AFE1220FFF787FEFF20FFF784FE71
:104D80003220FFF781FE0020FFF77EFEF420FFF7C0
:104D90009DFE4020FFF778FE0020FFF775FE0820FB
:104DA000FFF772FE9120FFF76FFE0420FFF76CFE05
:104DB000F820FFF78BFE2120FFF766FE0420FFF7A7
:104DC00063FE3620FFF782FE4820FFF75DFE3A20A3
:104DD000FFF77CFE5520FFF757FE1120FFF776FE08
:104DE0007820FCF7DFFA2920FFF770FEFFF78CFE32
:104DF000074B1B6832209847FFF77CFE3620FFF7F1
:104E00006FFEC820FFF73BFEFFF77EFE08BD00BF28
:104E10004407002038B59BB292B289B280B2FFF746
:104E20007DFE0446FFF766FE2C20FFF7A5FEBDF8C9
:104E30001050094B00225A6106E02846FFF7AAFEEF
:104E4000054A536901335361034B5B69A342F4D1B3
:104E5000FFF75AFE38BD00BF3008002038B5049C6B
:104E60009BB292B289B280B2FFF758FE0546FFF7B7
:104E700041FE2C20FFF780FE094B00225A6107E01B
:104E800034F8020BFFF786FE054A5369013353617C
:104E9000034B5B69AB42F3D1FFF736FE38BD00BF71
:104EA0003008002038B5049C9BB292B289B280B21F
:104EB000FFF734FE0546FFF71DFE2C20FFF75CFED2
:104EC0000A4B00225A6107E034F8020BFFF762FE3A
:104ED000064A536901335361044B5B69AB42F3D11A
:104EE000FFF712FE05F0F4F838BD00BF30080020CF
:104EF0002DE9F0418AB0484C002203212046FCF7FE
:104F00002AFE464F002203213846FCF724FE0125E5
:104F100005950895069505A92046FCF743FD022650
:104F20000596069505A92046FCF73CFD05954FF032
:104F30000308CDF8188005A93846FCF733FD05961F
:104F4000CDF8188005A93846FCF72CFD002229462B
:104F50002046FCF700FE2A4631462046FCF7FBFDC2
:104F60000024019403940494029501A92C48FCF7B1
:104F7000E9FB12E02A4D2846FCF7EAFA012128460F
:104F8000FCF782FB2846FCF7DAFB264B03EB4403D5
:104F900018832846FCF758FB0134052CEADD214C28
:104FA000214B0222052104F118000FF0E3FEA68B2D
:104FB0000AA9012341F8243D1948FCF7C3FB002549
:104FC00012E0174C2046FCF7C3FA01212046FCF7FB
:104FD0005BFB2046FCF7B3FB124B03EB4503188346
:104FE0002046FCF731FB0135052DEADD0D4C0E4B5B
:104FF0000222052104F118000FF0BCFE002202215C
:105000000548FCF7A8FDA08B801B80B200F6FF705E
:1050100080B20AB0BDE8F081000402400000024006
:10502000B458012030080020E54800082DE9F0417F
:105030008AB0354F002203213846FCF78CFD334EF1
:10504000002203213046FCF786FD012505950895D1
:10505000069505A93846FCF7A5FC4FF00208CDF8E7
:1050600014800024069405A93846FCF79BFC05959E
:105070000323069305A93046FCF794FCCDF8148071
:10508000069505A93046FCF78DFC2A462946384688
:10509000FCF761FD224641463046FCF75CFD019479
:1050A00003940494029501A91948FCF74BFB03945F
:1050B00012E0174D2846FCF74BFA01212846FCF771
:1050C000E3FA2846FCF73BFB124B03EB440318833F
:1050D0002846FCF7B9FA0134052CEADD002201214B
:1050E0000948FCF738FD0B4C0B4B0222052104F15B
:1050F00018000FF03FFEA08BC0F57F600F3080B22C
:105100000AB0BDE8F08100BF000402400000024088
:10511000B458012030080020E54800082DE9F0418E
:105120008AB0324F002203213846FCF714FD304E7E
:10513000002203213046FCF70EFD01250595089558
:105140000024069405A93846FCF72CFC4FF0020811
:10515000CDF81480069505A93846FCF723FC059583
:10516000069505A93046FCF71DFCCDF814800323F5
:10517000069305A93046FCF715FC2A462946304619
:10518000FCF7E9FC039404940195029501A91948E0
:10519000FCF7D8FA12E0174D2846FCF7D9F901219F
:1051A0002846FCF771FA2846FCF7C9FA124B03EBC4
:1051B000440318832846FCF747FA0134052CEADD3E
:1051C000002201210A48FCF7C6FC0B4C0B4B0222C3
:1051D000052104F118000FF0CDFDA08BC0F57F6014
:1051E0000F3080B20AB0BDE8F08100BF0004024079
:1051F00000000240B458012030080020E5480008B3
:1052000070B586B00446FFF773FEB0F5FA7F94BF21
:1052100000200120207200BB012401940494029418
:10522000184D01A92846FCF7BDFB02260196029401
:1052300001A92846FCF7B6FB01940294A5F5806508
:1052400001A92846FCF7AEFB0196029401A9284665
:10525000FCF7A8FB002006B070BD0B4B1B8853B1B8
:10526000FFF75CFFFFF742FB2080FFF7DFFEFFF751
:105270004DFB6080D0E7FFF751FF2080FFF7D6FE9F
:105280006080C9E70004024018010020012800D016
:1052900070474FF6FF739942FAD1054B1B7803EB29
:1052A0004302C3EBC203034A13809380F0E700BFBD
:1052B000900800202001002010B588B00020FEF7E3
:1052C00015FEFBF7DFF830A3D3E90023FBF744F921
:1052D00002460B46304968460FF074FE2F4C694673
:1052E00060680CF0BDF90020FEF700FEA3681B68A3
:1052F000227823F81200E0680BF033F80120FEF763
:10530000F5FDFBF7BFF820A3D3E90023FBF724F951
:1053100002460B46224968460FF054FE6946206952
:105320000CF09EF90120FEF7E1FD63691B6822780D
:1053300023F81200A0690BF014F80220FEF7D6FD46
:10534000FBF7A0F812A3D3E90023FBF705F9024607
:105350000B46144968460FF035FE6946E0690CF0CB
:105360007FF90220FEF7C2FD00EBD0704010236AE7
:105370001B68227823F81200606A0AF0F2FF08B076
:1053800010BD00BFAFF300800AD7A3703D0A873F6E
:10539000B81E85EB51B88E3FE02705089008002025
:1053A000F02705080428050810B582B000241CE089
:1053B0001B01DBB243F002038DF8003013168DF8A9
:1053C000013013148DF8023013128DF803308DF86C
:1053D000042064238DF8053001238DF80630072161
:1053E000684601F0D7FD0134E4B2022C0BD8234605
:1053F00006494FF02C0202FB041292684FEA820227
:10540000D6D15200D4E702B010BD00BF2001002069
:1054100038B504460021144B986A02F035FE054663
:1054200024B1012C0BD0022C13D038BD0F490CF045
:1054300017F904210C4B986A09F026F8F1E70C499A
:1054400028460CF00DF90021074B986A09F01CF86A
:10545000E9E7084928460CF003F90021024B986A55
:1054600009F012F8E1E700BF90080020A026050827
:10547000AC260508B8260508F0B585B00546304BC2
:10548000DB6A834225D02E4B1B6BAB4224D0002419
:105490002B4B5B6BAB4227D00021284602F0F4FD7A
:1054A00007462646264B1A7804EB840304EB430494
:1054B000244B1C44144494F88C3003B1E2B9042109
:1054C000284608F0E1FF01A938460CF0C9F805B0FC
:1054D000F0BD1D4B0193D6E71C4B93E803000190F0
:1054E000ADF808100124D3E7194B93E803000190AD
:1054F000ADF808100224CFE70021284608F0C4FFC9
:105500000F4B1A7806EB860106EB41061E44164443
:1055100096F838304BB101AA0E4910460FF052FDF3
:1055200001A938460CF09CF8D1E701AA0A491046B7
:105530000FF048FD01A938460CF092F8C7E700BF0C
:1055400090080020200100204A61770014280508F7
:105550001C280508242805082C28050830B583B028
:10556000754BD86A02F084FD044602F029FD84429E
:1055700001D003B030BDFBF789FD0320FBF794FD9C
:1055800000226E4B51EC100BFBF74EFAD8B16A4B70
:105590001B78092B17D8684A92F859209AB9664A9D
:1055A000916808684CF6385120F81310506900686B
:1055B00020F81310106A006820F8131001331370DC
:1055C000022382F859300320FBF76EFD00225C4B6A
:1055D00051EC100BFBF732FAD0B1574B1B78BBB133
:1055E000554A92F859209AB9534A916808684CF67E
:1055F000385120F813105069006820F81310106A11
:10560000006820F81310013B1370022382F8593010
:10561000494B93F859301BB1013B474A82F8593046
:10562000454B93F85930012BA3D10020FEF75EFCC7
:10563000414CA3681B68227823F812000120FEF772
:1056400055FC63691B68227823F812000220FEF7DC
:105650004DFC00EBD0704010236A1A68237822F8C2
:105660001300C3EB431337490B808B800222E06D9C
:105670000CF094FAE06AFFF7FFFE206BFFF7FCFEE8
:10568000606BFFF7F9FE236E1968237803EB830341
:105690009A008B5E9B0002228DF800201A168DF86E
:1056A00001201A148DF802201A128DF803208DF8AB
:1056B000043064258DF8055001238DF8063007214C
:1056C000684601F067FC636E1968237803EB830377
:1056D0009A008B5E9B0012228DF800201A168DF81E
:1056E00001201A148DF802201A128DF803208DF86B
:1056F00004308DF805500721684601F04BFCA36E7D
:105700001968237803EB83039A008B5EDB00222267
:105710008DF800201A168DF801201A148DF8022039
:105720001A128DF803208DF804308DF805500721EA
:10573000684601F02FFC1CE7900800200000F03FB5
:105740000000E8BF200100202DE9F04F2DED0C8B6B
:10575000A3B081468246744B0344002183F8B01005
:1057600001E00131C9B20A291BD80AEB8A030AEB0E
:1057700043026D4B13440B4493F88C30002BF0D054
:10578000694B03EB0A0494F8B0200AEB8A000AEB99
:1057900040000344134483F8B410013284F8B0206D
:1057A000DFE70023604A524492F8B0209A4202D9BF
:1057B0000133DBB2F6E700242FE0631EDFF868B1A7
:1057C0000D460BEB0102134493F8B460A8EB0603FB
:1057D00003EB83035800FAF755FECDE900012E4490
:1057E0000BEB8606B068FAF74DFE06460F464544B9
:1057F0000BEB850BDBF80800FAF744FE32463B461C
:10580000FAF7F2FCDDE90023FAF7D0FF22AB03EB55
:10581000C40343E914010134E4B20A2C17D80AEB9B
:105820008A030AEB4301404A0A44224492F8B480B6
:105830003E4B0B44434493F83830012BBDD000203D
:10584000002122AB03EBC40343E91401E3E74FF06B
:10585000000B00260027CDE90867CDE90667CDE9F2
:105860000467CDE9026747EC1D6B5F464B46D9469E
:105870009846BDE109F101020B922B4E0AEB8A0416
:105880000AEB440433199A1892F8B4704B4493F815
:10589000B4507B1B03EB83035800FAF7F3FD41EC94
:1058A000180B254406EB8505A868FAF7EBFDCDE952
:1058B0000201E31906EB8306B068FAF7E3FDCDE9D0
:1058C00008011A4B1C44274497F8383083B3DDE9AC
:1058D0000223DDE90801FAF787FC53EC182BFAF7ED
:1058E00065FFCDE904019FED0E7BB0EE47DAF0EEE7
:1058F00067DA8DED087B8DED067B0AEB8A030AEBF8
:105900004302094B13440B990B4493F8B43003EB57
:1059100083035A00571C894673E100BFAFF3008030
:10592000000000000000000020010020900800207E
:1059300022AB03EBC90313ED147B8DED047B09F15E
:10594000020322AA02EBC30313ED14AB53EC182B92
:1059500051EC180BFAF74AFC02460B4600200021D6
:10596000FAF724FF06460F460022954B51EC1A0B1E
:10597000FAF7F2FD04460D460022924BDDE90401E0
:10598000FAF7EAFD02460B4620462946FAF72EFCB6
:1059900004460D469FED82BBB0EE4B1AF0EE6B1A3B
:1059A000B0EE480AF0EE680A0DF00EFC53EC102B36
:1059B00020462946FAF7FAFE02460B46304639469B
:1059C000FAF712FC04460D46DDE90223DDE9080181
:1059D000FAF70AFCCDE90C0100227B4BFAF7BCFD7B
:1059E00006460F469FED709BB0EE491AF0EE691A1D
:1059F000B0EE480AF0EE680A0DF0E6FB53EC102B0F
:105A000030463946FAF7D2FE02460B462046294672
:105A1000FAF7ECFBCDE90601B0EE4B1AF0EE6B1A8B
:105A2000B0EE480AF0EE680A0DF0CEFB53EC102BF6
:105A300000200021FAF7BAFE06460F460022634B0B
:105A4000DDE90401FAF788FD04460D460022604BAB
:105A500051EC1A0BFAF780FD02460B462046294608
:105A6000FAF7C4FB04460D46B0EE491AF0EE691A87
:105A7000B0EE480AF0EE680A0DF0A6FB53EC102BCE
:105A800020462946FAF792FE02460B463046394632
:105A9000FAF7ACFB04460D46DDE90823DDE9020117
:105AA000FAF7A2FB00224B4BFAF756FD06460F46CB
:105AB0009FED3FBBB0EE4B1AF0EE6B1AB0EE480A0A
:105AC000F0EE680A0DF080FB53EC102B304639469F
:105AD000FAF76CFE02460B4620462946FAF786FB8B
